{
    "contractName": "PeopleCount",
    "abi": [
        {
            "inputs": [],
            "stateMutability": "nonpayable",
            "type": "constructor"
        },
        {
            "inputs": [
                {
                    "internalType": "address",
                    "name": "walletAddress",
                    "type": "address"
                },
                {
                    "internalType": "string",
                    "name": "firstName",
                    "type": "string"
                },
                {
                    "internalType": "string",
                    "name": "lastName",
                    "type": "string"
                }
            ],
            "name": "addPerson",
            "outputs": [],
            "stateMutability": "nonpayable",
            "type": "function"
        },
        {
            "inputs": [],
            "name": "contractOwner",
            "outputs": [
                {
                    "internalType": "address",
                    "name": "",
                    "type": "address"
                }
            ],
            "stateMutability": "view",
            "type": "function"
        },
        {
            "inputs": [],
            "name": "getNumPeople",
            "outputs": [
                {
                    "internalType": "uint256",
                    "name": "",
                    "type": "uint256"
                }
            ],
            "stateMutability": "view",
            "type": "function"
        },
        {
            "inputs": [
                {
                    "internalType": "address",
                    "name": "",
                    "type": "address"
                },
                {
                    "internalType": "uint256",
                    "name": "",
                    "type": "uint256"
                }
            ],
            "name": "members",
            "outputs": [
                {
                    "internalType": "uint256",
                    "name": "id",
                    "type": "uint256"
                },
                {
                    "internalType": "string",
                    "name": "firstName",
                    "type": "string"
                },
                {
                    "internalType": "string",
                    "name": "lastName",
                    "type": "string"
                },
                {
                    "internalType": "address",
                    "name": "walletAddress",
                    "type": "address"
                }
            ],
            "stateMutability": "view",
            "type": "function"
        },
        {
            "inputs": [],
            "name": "numPeople",
            "outputs": [
                {
                    "internalType": "uint256",
                    "name": "",
                    "type": "uint256"
                }
            ],
            "stateMutability": "view",
            "type": "function"
        }
    ],
    "bytecode": "608060405234801561001057600080fd5b5060008055600180546001600160a01b03191633179055610644806100366000396000f3fe608060405234801561001057600080fd5b50600436106100575760003560e01c806320fa88b91461005c578063719ba034146100735780638f44533014610096578063ce606ee0146100ab578063ce8acbad146100d6575b600080fd5b6000545b6040519081526020015b60405180910390f35b6100866100813660046104db565b6100df565b60405161006a9493929190610552565b6100a96100a4366004610467565b610245565b005b6001546100be906001600160a01b031681565b6040516001600160a01b03909116815260200161006a565b61006060005481565b600260205281600052604060002081815481106100fb57600080fd5b906000526020600020906004020160009150915050806000015490806001018054610125906105bd565b80601f0160208091040260200160405190810160405280929190818152602001828054610151906105bd565b801561019e5780601f106101735761010080835404028352916020019161019e565b820191906000526020600020905b81548152906001019060200180831161018157829003601f168201915b5050505050908060020180546101b3906105bd565b80601f01602080910402602001604051908101604052809291908181526020018280546101df906105bd565b801561022c5780601f106102015761010080835404028352916020019161022c565b820191906000526020600020905b81548152906001019060200180831161020f57829003601f168201915b505050600390930154919250506001600160a01b031684565b6001546001600160a01b0316331461025c57600080fd5b6040805160808101825260008054825260208083018681528385018690526001600160a01b0388166060850181905283526002825293822080546001818101835591845292829020845160049094020192835593518051939485946102c8939185019290910190610325565b50604082015180516102e4916002840191602090910190610325565b5060609190910151600390910180546001600160a01b0319166001600160a01b0390921691909117905560005461031c906001610597565b60005550505050565b828054610331906105bd565b90600052602060002090601f0160209004810192826103535760008555610399565b82601f1061036c57805160ff1916838001178555610399565b82800160010185558215610399579182015b8281111561039957825182559160200191906001019061037e565b506103a59291506103a9565b5090565b5b808211156103a557600081556001016103aa565b80356001600160a01b03811681146103d557600080fd5b919050565b600082601f8301126103eb57600080fd5b813567ffffffffffffffff80821115610406576104066105f8565b604051601f8301601f19908116603f0116810190828211818310171561042e5761042e6105f8565b8160405283815286602085880101111561044757600080fd5b836020870160208301376000602085830101528094505050505092915050565b60008060006060848603121561047c57600080fd5b610485846103be565b9250602084013567ffffffffffffffff808211156104a257600080fd5b6104ae878388016103da565b935060408601359150808211156104c457600080fd5b506104d1868287016103da565b9150509250925092565b600080604083850312156104ee57600080fd5b6104f7836103be565b946020939093013593505050565b6000815180845260005b8181101561052b5760208185018101518683018201520161050f565b8181111561053d576000602083870101525b50601f01601f19169290920160200192915050565b84815260806020820152600061056b6080830186610505565b828103604084015261057d8186610505565b91505060018060a01b038316606083015295945050505050565b600082198211156105b857634e487b7160e01b600052601160045260246000fd5b500190565b600181811c908216806105d157607f821691505b602082108114156105f257634e487b7160e01b600052602260045260246000fd5b50919050565b634e487b7160e01b600052604160045260246000fdfea26469706673582212201ad58b874507ab6a36d4eb028e548ef6cd59cdd9267485ba46804fbdfaca101464736f6c63430008070033",
    "sourcePath": "/Users/philson_imac/Documents/NUS SGUS/COURSES/COMFTMCSB11 Making Contracts Smart with Blockchain/SmartContractsDay2/PeopleCount.sol",
    "compiler": {
        "name": "solc",
        "version": "0.8.7+commit.e28d00a7"
    },
    "functionHashes": {
        "addPerson(address,string,string)": "8f445330",
        "contractOwner()": "ce606ee0",
        "getNumPeople()": "20fa88b9",
        "members(address,uint256)": "719ba034",
        "numPeople()": "ce8acbad"
    },
    "gasEstimates": {
        "creation": {
            "codeDepositCost": "320800",
            "executionCost": "29603",
            "totalCost": "350403"
        },
        "external": {
            "addPerson(address,string,string)": "infinite",
            "contractOwner()": "2381",
            "getNumPeople()": "2248",
            "members(address,uint256)": "infinite",
            "numPeople()": "2350"
        }
    }
}